:100000000C942A000C943F000C943F000C943F0089
:100010000C943F000C943F000C943F000C943F0064
:100020000C943F000C943F000C943F000C943F0054
:100030000C943F000C943F000C943F000C943F0044
:100040000C943F000C943F000C943F000C943F0034
:100050000C943F0011241FBECFE5D8E0DEBFCDBF1A
:1000600011E0A0E6B0E0EEEAFBE202C005900D92DE
:10007000A239B107D9F70E9411150C94D5150C942B
:100080000000EF92FF920F931F937B018C0120E001
:1000900030E040E05FE40E94410388238CF0C80117
:1000A000B70120E030E040E05FE40E94B9010E9427
:1000B000FF039B01AC01205030404040504806C037
:1000C000C801B7010E94FF039B01AC01B901CA013D
:1000D0001F910F91FF90EF900895A0E0B0E0E3E74B
:1000E000F0E00C949E15DC012B01FA019C919230FA
:1000F00008F439C1EB018881823008F433C19430AF
:1001000069F4843009F02FC111969C91119789816F
:10011000981709F428C1AAE7B0E025C1843009F492
:1001200021C18230A9F4923009F01DC19A01AD01BC
:1001300088E0EA010990AE01E90109929E0181502F
:10014000C1F7E201898111969C918923818308C1BD
:10015000923009F407C112962D903C901397EB0151
:100160008A819B811496AD90BD90CD90DC901797BD
:10017000EC80FD800E811F819101281B390BB90194
:1001800037FF04C066277727621B730B6032710547
:100190000CF061C0121613066CF537014801062EEB
:1001A00004C096948794779467940A94D2F721E0D8
:1001B00030E040E050E004C0220F331F441F551FC1
:1001C0006A95D2F721503040404050402E213F21C7
:1001D00040235123211531054105510521F021E02E
:1001E00030E040E050E079018A01E628F72808294C
:1001F00019293CC0232BD1F1260E371E35014601AB
:10020000062E04C096948794779467940A94D2F744
:1002100021E030E040E050E004C0220F331F441FD3
:10022000551F6A95D2F721503040404050402A2156
:100230003B214C215D21211531054105510521F05E
:1002400021E030E040E050E059016A01A628B728DB
:10025000C828D9280BC0821593052CF01C01AA24AC
:10026000BB24650103C0EE24FF24870111969C91F5
:10027000D20111968C91981709F445C0992339F051
:10028000A80197012A193B094C095D0906C0A6017E
:1002900095012E193F09400B510B57FD08C01182E3
:1002A0003382228224833583468357831DC081E0B5
:1002B00081833382228288279927DC01821B930B5A
:1002C000A40BB50B84839583A683B7830DC0220F3F
:1002D000331F441F551F24833583468357838281F0
:1002E000938101979383828324813581468157814D
:1002F000DA01C9010197A109B1098F5F9F4FAF4F83
:10030000BF4328F30BC0918333822282EA0CFB1C8B
:100310000C1D1D1DE482F5820683178383E0808314
:10032000248135814681578157FF1AC0C901AA2708
:1003300097FDA095BA2F81709070A070B0705695FF
:10034000479537952795822B932BA42BB52B848328
:100350009583A683B7838281938101969383828359
:10036000DF0101C0D201CD01CDB7DEB7E2E10C94CF
:10037000BA15A0E2B0E0EFEBF1E00C94AA156983A6
:100380007A838B839C832D833E834F835887E9E058
:10039000EE2EF12CEC0EFD1ECE010196B7010E944F
:1003A00077058E010F5E1F4FCE010596B8010E94A2
:1003B00077058A8991E089278A8BC701B801AE0148
:1003C000475E5F4F0E946D000E94A204A096E6E087
:1003D0000C94C615A0E2B0E0E0EFF1E00C94AA1591
:1003E00069837A838B839C832D833E834F835887D5
:1003F000F9E0EF2EF12CEC0EFD1ECE010196B701B7
:100400000E9477058E010F5E1F4FCE010596B80141
:100410000E947705C701B801AE01475E5F4F0E9499
:100420006D000E94A204A096E6E00C94C615A0E21E
:10043000B0E0EDE1F2E00C949E1569837A838B8342
:100440009C832D833E834F835887CE010196BE0146
:10045000675F7F4F0E947705CE010596BE016F5EF4
:100460007F4F0E9477059985923088F08989823084
:10047000C8F0943019F4823051F404C0843029F467
:10048000923081F48AE790E0C6C0923049F420E0CF
:100490009A858A89981321E02A87CE010996BBC0E4
:1004A000823049F420E09A858A89981321E02A8BCA
:1004B000CE014196B0C02D843E844F8458886D880B
:1004C0007E888F88988CEE24FF248701AA24BB2481
:1004D000650140E050E060E070E0E0E0F0E0C10184
:1004E00081709070892BE9F0E60CF71C081D191D2E
:1004F0009A01AB012A0D3B1D4C1D5D1D80E090E073
:10050000A0E0B0E0E614F7040805190520F481E046
:1005100090E0A0E0B0E0BA01A901480F591F6A1F9E
:100520007B1FAA0CBB1CCC1CDD1C97FE08C081E005
:1005300090E0A0E0B0E0A82AB92ACA2ADB2A3196C6
:10054000E032F10549F0660C771C881C991C569422
:10055000479437942794C3CFFA85EA892B893C893D
:100560008B859C85280F391F2E5F3F4F17C0CA010E
:1005700081709070892B61F016950795F794E79438
:1005800080E090E0A0E0B0E8E82AF92A0A2B1B2BD3
:1005900076956795579547952F5F3F4F77FDE7CF46
:1005A0000CC0440F551F661F771F17FD4160EE0CEE
:1005B000FF1C001F111F21503040403090E05907B0
:1005C00090E0690790E4790760F32B8F3C8FDB01A3
:1005D000CA018F779070A070B07080349105A1052A
:1005E000B10561F447FD0AC0E114F10401051105EC
:1005F00029F0405C5F4F6F4F7F4F40781A8EFE1797
:1006000011F081E08A8F4D8F5E8F6F8F78A383E02A
:10061000898FCE0149960E94A204A096E2E10C9433
:10062000BA15A8E1B0E0E7E1F3E00C94AA156983FC
:100630007A838B839C832D833E834F83588789E005
:10064000E82EF12CEC0EFD1ECE010196B7010E94A2
:1006500077058E010F5E1F4FCE010596B8010E94EF
:1006600077058985823040F08989823028F0C7017A
:10067000B8010E94EF0501C08FEF6896E6E00C9488
:10068000C615A8E1B0E0E7E4F3E00C94AA1569838D
:100690007A838B839C832D833E834F83588789E0A5
:1006A000E82EF12CEC0EFD1ECE010196B7010E9442
:1006B00077058E010F5E1F4FCE010596B8010E948F
:1006C00077058985823040F08989823028F0C7011A
:1006D000B8010E94EF0501C08FEF6896E6E00C9428
:1006E000C615A8E1B0E0E7E7F3E00C94AA1569832A
:1006F0007A838B839C832D833E834F83588789E045
:10070000E82EF12CEC0EFD1ECE010196B7010E94E1
:1007100077058E010F5E1F4FCE010596B8010E942E
:1007200077058985823040F08989823028F0C701B9
:10073000B8010E94EF0501C081E06896E6E00C94E4
:10074000C615A8E0B0E0E7EAF3E00C94A7159B011A
:10075000AC0183E08983DA01C9018827B7FD83955D
:100760009927AA27BB27B82E211531054105510528
:1007700019F482E089833AC08823A9F0203080E010
:10078000380780E0480780E8580729F460E070E007
:1007900080E09FEC30C0EE24FF248701E21AF30AC8
:1007A000040B150B02C079018A018EE1C82ED12CF1
:1007B000DC82CB82ED82FE820F831887C801B701ED
:1007C0000E94530401971816190684F4082E04C0D9
:1007D000EE0CFF1C001F111F0A94D2F7ED82FE825F
:1007E0000F831887C81AD90ADC82CB82BA82CE015D
:1007F00001960E94A2042896E9E00C94C315ACE08F
:10080000B0E0E5E0F4E00C94AE1569837A838B8365
:100810009C83CE010196BE016B5F7F4F0E947705DE
:100820008D81823061F1823050F1843021F48E81EB
:10083000882351F12EC02F81388537FD20C06E816D
:100840002F3131051CF06623F9F023C08EE190E0D2
:10085000821B930B29853A854B855C8504C0569590
:100860004795379527958A95D2F76623B1F050952D
:100870004095309521953F4F4F4F5F4F0EC020E080
:1008800030E040E050E009C02FEF3FEF4FEF5FE76F
:1008900004C020E030E040E050E8B901CA012C96E5
:1008A000E2E00C94CA15EF92FF920F931F937B0125
:1008B0008C0180E0E81680E0F80681E0080780E01F
:1008C000180788F48FEFE816F1040105110531F0DF
:1008D00028F088E090E0A0E0B0E017C080E090E071
:1008E000A0E0B0E012C080E0E81680E0F80680E00A
:1008F000080781E0180728F088E190E0A0E0B0E068
:1009000004C080E190E0A0E0B0E020E230E040E010
:1009100050E0281B390B4A0B5B0B04C0169507955A
:10092000F794E7948A95D2F7F701EE57FF4F80814D
:10093000281B310941095109C9011F910F91FF90ED
:10094000EF900895DF92EF92FF920F931F93FC01B7
:10095000E480F58006811781D1808081823048F45F
:1009600080E090E0A0E1B0E0E82AF92A0A2B1B2BF6
:10097000A5C0843009F49FC0823021F4EE24FF2406
:10098000870105C0E114F1040105110519F4E0E047
:10099000F0E096C0628173819FEF623879070CF0B6
:1009A0005BC022E83FEF261B370B2A3131052CF0C4
:1009B00020E030E040E050E02AC0B801A701022E5C
:1009C00004C076956795579547950A94D2F781E0CC
:1009D00090E0A0E0B0E004C0880F991FAA1FBB1FE1
:1009E0002A95D2F70197A109B1098E219F21A02351
:1009F000B1230097A105B10521F081E090E0A0E0CE
:100A0000B0E09A01AB01282B392B4A2B5B2BDA0182
:100A1000C9018F779070A070B07080349105A105E6
:100A2000B10539F427FF09C0205C3F4F4F4F5F4F9E
:100A300004C0215C3F4F4F4F5F4FE0E0F0E02030BB
:100A4000A0E03A07A0E04A07A0E45A0710F0E1E06E
:100A5000F0E079018A0127C06038710564F5FB0177
:100A6000E158FF4FD801C7018F779070A070B07028
:100A700080349105A105B10539F4E7FE0DC080E48D
:100A800090E0A0E0B0E004C08FE390E0A0E0B0E030
:100A9000E80EF91E0A1F1B1F17FF05C016950795C4
:100AA000F794E794319687E016950795F794E794C5
:100AB0008A95D1F705C0EE24FF248701EFEFF0E01F
:100AC0006E2F679566276795902F9F77D794DD24C3
:100AD000D7948E2F8695492F462B582F5D29B70125
:100AE000CA011F910F91FF90EF90DF900895FC01D4
:100AF000DB01408151812281622F6F7770E0221FDC
:100B00002227221F9381892F880F822B282F30E0E4
:100B1000991F9927991F11969C93119721153105BB
:100B2000A9F5411551056105710511F482E037C041
:100B300082E89FEF13969C938E9312979A01AB01D4
:100B400067E0220F331F441F551F6A95D1F783E0DA
:100B50008C930DC0220F331F441F551F12968D9189
:100B60009C911397019713969C938E931297203024
:100B700080E0380780E0480780E4580758F314966F
:100B80002D933D934D935C93179708952F3F310517
:100B900079F4411551056105710519F484E08C93D0
:100BA000089564FF03C081E08C9312C01C9210C0B2
:100BB0002F57304013963C932E93129783E08C93DB
:100BC00087E0440F551F661F771F8A95D1F7706421
:100BD00014964D935D936D937C93179708951F938F
:100BE000DC01FB019C91923008F447C08081823087
:100BF00008F443C0943051F411961C91843099F557
:100C00008181682F70E0611B71093FC0843021F041
:100C1000923031F48230B9F18181882389F12DC07D
:100C200011961C9111978230F1F081811817D9F437
:100C300012962D913C91139782819381821793078D
:100C400094F028173907BCF014968D919D910D9062
:100C5000BC91A02D24813581468157812817390701
:100C60004A075B0718F4112341F00AC08217930763
:100C7000A407B50740F4112319F061E070E005C046
:100C80006FEF7FEF02C060E070E0CB011F9108952D
:100C9000DF93CF93CDB7DEB7EAE2F0E088E180835F
:100CA000E0E4F0E086E88083E9E2F0E083E380833B
:100CB000CF91DF910895DF93CF930F92CDB7DEB739
:100CC0008983EBE2F0E08081829586958770882F9A
:100CD00090E0817090700097A1F3ECE2F0E08981E0
:100CE00080830F90CF91DF910895DF93CF93CDB79D
:100CF000DEB7EBE2F0E080818823DCF7ECE2F0E0A5
:100D00008081CF91DF910895DF93CF9300D00F9230
:100D1000CDB7DEB789838981282F30E03B832A83D2
:100D20008A819B818130910561F12A813B8122304A
:100D300031052CF48A819B81009769F071C02A816A
:100D40003B812230310599F18A819B818330910565
:100D500009F44AC065C0A3E5B0E0E3E5F0E08081B6
:100D6000877F8C93A3E5B0E0E3E5F0E080818F7BA3
:100D70008C93A9E5B0E0E9E5F0E0808181608C9397
:100D80004FC0A3E5B0E0E3E5F0E0808188608C939C
:100D9000A3E5B0E0E3E5F0E080818F7B8C93A9E5EB
:100DA000B0E0E9E5F0E0808182608C9339C0A3E592
:100DB000B0E0E3E5F0E0808188608C93A3E5B0E0EB
:100DC000E3E5F0E0808180648C93A3E5B0E0E3E5A7
:100DD000F0E080818F7E8C93A3E5B0E0E3E5F0E066
:100DE000808180628C931CC0A3E5B0E0E3E5F0E075
:100DF0008081877F8C93A3E5B0E0E3E5F0E080811C
:100E000080648C93A3E5B0E0E3E5F0E080818F7E21
:100E10008C93A3E5B0E0E3E5F0E0808180628C9301
:100E20000F900F900F90CF91DF910895DF93CF93A4
:100E300000D0CDB7DEB789836A838981882329F4FE
:100E4000E2E5F0E08A81808304C0ECE5F0E08A818D
:100E500080830F900F90CF91DF910895DF93CF9310
:100E6000CDB7DEB7A3E5B0E0E3E5F0E080818E7FAB
:100E70008C93A3E5B0E0E3E5F0E0808182608C93A1
:100E8000A3E5B0E0E3E5F0E080818B7F8C93CF9128
:100E9000DF910895DF93CF93CDB7DEB7A3E5B0E040
:100EA000E3E5F0E080818E7F8C93A3E5B0E0E3E59D
:100EB000F0E080818D7F8C93A3E5B0E0E3E5F0E086
:100EC00080818B7F8C93CF91DF910895DF93CF93B7
:100ED000CDB7DEB7AFE4B0E0EFE4F0E080818F7B28
:100EE0008C93AFE4B0E0EFE4F0E0808180688C9315
:100EF000AFE4B0E0EFE4F0E080818E7F8C93AFE46C
:100F0000B0E0EFE4F0E0808182608C93AEE4B0E08A
:100F1000EEE4F0E0808188608C93AEE4B0E0EEE433
:100F2000F0E0808180618C93AEE4B0E0EEE4F0E02C
:100F300080818E7F8C93AEE4B0E0EEE4F0E08081BF
:100F400082608C93AEE4B0E0EEE4F0E080818B7FD1
:100F50008C93CF91DF910895DF93CF9300D0CDB7DD
:100F6000DEB79A838983ECE4F0E089819A819183EA
:100F700080830F900F90CF91DF910895DF93CF93EF
:100F8000CDB7DEB7ECE4F0E080819181CF91DF91C5
:100F90000895DF93CF9300D0CDB7DEB79A838983CE
:100FA000E6E4F0E089819A81918380830F900F902D
:100FB000CF91DF910895DF93CF9300D0CDB7DEB707
:100FC0009A838983EAE4F0E089819A81918380831E
:100FD0000F900F90CF91DF910895DF93CF93CDB70E
:100FE000DEB7ADE2B0E0EDE2F0E0808180618C93AD
:100FF000ADE2B0E0EDE2F0E0808181608C93ADE2A3
:10100000B0E0EDE2F0E080818D7F8C93ADE2B0E066
:10101000EDE2F0E080818E7F8C93ADE2B0E0EDE216
:10102000F0E0808180648C93CF91DF910895DF930D
:10103000CF93CDB7DEB7ADE2B0E0EDE2F0E0808176
:101040008F7E8C93ADE2B0E0EDE2F0E080818064D1
:101050008C93CF91DF910895DF93CF930F92CDB70B
:10106000DEB78983EFE2F0E089818083EEE2F0E091
:1010700080818823DCF7EFE2F0E080810F90CF9150
:10108000DF910895DF93CF93CDB7DEB7E0E2F0E0D4
:1010900088E48083A1E2B0E0E1E2F0E080818E7F2D
:1010A0008C93A1E2B0E0E1E2F0E080818D7F8C934F
:1010B000A6E5B0E0E6E5F0E0808184608C93CF9116
:1010C000DF910895DF93CF930F92CDB7DEB7898379
:1010D000E2E2F0E08981880F8083A6E5B0E0E6E5F2
:1010E000F0E0808184608C930F90CF91DF91089520
:1010F000DF93CF930F92CDB7DEB71982A6E5B0E0AC
:10110000E6E5F0E0808180628C93A6E5B0E0E6E55C
:10111000F0E0808180688C93E6E5F0E080818823B0
:10112000DCF7E1E2F0E08081882F90E0887F90702A
:101130008830910511F081E0898389810F90CF91EA
:10114000DF910895DF93CF9300D0CDB7DEB78A83C8
:101150001982E3E2F0E08A81880F8083A3E2B0E0A5
:10116000E3E2F0E080818E7F8C93E6E5F0E084E8B6
:101170008083E6E5F0E080818823DCF7E1E2F0E0BF
:101180008081882F90E0887F90708831910511F0E0
:1011900082E0898389810F900F90CF91DF9108952C
:1011A000DF93CF9300D0CDB7DEB78A831982E3E215
:1011B000F0E08A818083A6E5B0E0E6E5F0E080819A
:1011C00080688C93E6E5F0E080818823DCF7E1E23B
:1011D000F0E08081882F90E0887F907088329105C0
:1011E00011F083E0898389810F900F90CF91DF9177
:1011F0000895DF93CF9300D00F92CDB7DEB79B83D6
:101200008A831982A6E5B0E0E6E5F0E0808180649B
:101210008C93A6E5B0E0E6E5F0E0808180688C93F1
:10122000E6E5F0E080818823DCF7E1E2F0E0808110
:10123000882F90E0887F90708036910511F084E0CF
:101240008983A6E5B0E0E6E5F0E0808180648C93D8
:10125000A6E5B0E0E6E5F0E0808180688C93E6E505
:10126000F0E080818823DCF7E1E2F0E08081882FE4
:1012700090E0887F90708038910519F085E089832F
:1012800006C0E3E2F0E08081EA81FB81808389810E
:101290000F900F900F90CF91DF910895DF93CF9330
:1012A000CDB7DEB7A6E5B0E0E6E5F0E0808180618D
:1012B0008C93A6E5B0E0E6E5F0E0808180688C9351
:1012C000CF91DF910895DF93CF93CDB7DEB7AFE530
:1012D000B0E0EFE5F0E0808180688C93CF91DF9102
:1012E0000895DF93CF93CDB7DEB7AFE5B0E0EFE57C
:1012F000F0E080818F778C93CF91DF910895DF9319
:10130000CF93CDB7DEB72A970FB6F894DEBF0FBEE6
:10131000CDBF89836A838981282F30E03A87298766
:1013200089859A858130910509F466C029853A85B9
:101330002230310509F4BBC089859A85009709F0F0
:10134000D5C08A81282F30E038872F838F819885F8
:101350008130910521F12F813885223031052CF41F
:101360008F819885009761F0C1C02F813885223028
:10137000310521F18F8198858330910571F1B6C0D7
:10138000A5E5B0E0E5E5F0E080818E7F8C93A5E5F2
:10139000B0E0E5E5F0E080818D7F8C93A7C0A5E506
:1013A000B0E0E5E5F0E0808181608C93A5E5B0E0F8
:1013B000E5E5F0E080818D7F8C9398C0A5E5B0E0F5
:1013C000E5E5F0E080818E7F8C93A5E5B0E0E5E572
:1013D000F0E0808182608C9389C0A5E5B0E0E5E50E
:1013E000F0E0808181608C93A5E5B0E0E5E5F0E078
:1013F000808182608C937AC08A81282F30E03E837E
:101400002D838D819E818130910521F12D813E8139
:10141000223031052CF48D819E81009761F066C0E9
:101420002D813E812230310521F18D819E818330D5
:10143000910571F15BC0A5E5B0E0E5E5F0E08081E4
:101440008B7F8C93A5E5B0E0E5E5F0E08081877FB8
:101450008C934CC0A5E5B0E0E5E5F0E080818460C8
:101460008C93A5E5B0E0E5E5F0E08081877F8C9383
:101470003DC0A5E5B0E0E5E5F0E080818B7F8C9391
:10148000A5E5B0E0E5E5F0E0808188608C932EC0B2
:10149000A5E5B0E0E5E5F0E0808184608C93A5E50A
:1014A000B0E0E5E5F0E0808188608C931FC08A8120
:1014B000282F30E03C832B838B819C8182309105E7
:1014C00031F02B813C812330310549F00FC0A4E578
:1014D000B0E0E4E5F0E080818F7B8C9307C0A4E569
:1014E000B0E0E4E5F0E0808180648C932A960FB64A
:1014F000F894DEBF0FBECDBFCF91DF910895DF938B
:10150000CF9300D00F92CDB7DEB789838981282F82
:1015100030E03B832A838A819B818130910589F069
:101520002A813B8122303105A1F08A819B8100977D
:10153000B9F4ABE5B0E0EBE5F0E0808180648C933A
:101540000FC0ABE5B0E0EBE5F0E0808180688C9304
:1015500007C0ABE5B0E0EBE5F0E0808180628C9302
:101560000F900F900F90CF91DF910895DF93CF935D
:1015700000D00F92CDB7DEB789838981282F30E064
:101580003B832A838A819B818130910589F02A815E
:101590003B8122303105A1F08A819B810097B9F40B
:1015A000ABE5B0E0EBE5F0E080818F7B8C930FC082
:1015B000ABE5B0E0EBE5F0E080818F778C9307C07E
:1015C000ABE5B0E0EBE5F0E080818F7D8C930F9090
:1015D0000F900F90CF91DF910895DF93CF93CDB708
:1015E000DEB72D970FB6F894DEBF0FBECDBF89834F
:1015F0006A834B838A81883008F006C18B818230F0
:1016000008F002C18981282F30E03D872C878C8526
:101610009D858234910509F450C02C853D85233485
:10162000310534F48C859D858134910571F0ECC0D1
:101630002C853D852334310509F477C08C859D8543
:101640008434910509F4A9C0DFC08B81282F30E0D4
:101650003B872A878A859B85009731F02A853B85C1
:1016600021303105B1F0D0C0AAE3B0E0EAE3F0E008
:101670008081482F8A81282F30E081E090E0022E7F
:1016800002C0880F991F0A94E2F7809584238C93F7
:10169000BBC0AAE3B0E0EAE3F0E08081482F8A8192
:1016A000282F30E081E090E0022E02C0880F991FC1
:1016B0000A94E2F7842B8C93A7C08B81282F30E00B
:1016C0003987288788859985009731F0288539855D
:1016D00021303105B1F098C0A7E3B0E0E7E3F0E0D6
:1016E0008081482F8A81282F30E081E090E0022E0F
:1016F00002C0880F991F0A94E2F7809584238C9387
:1017000083C0A7E3B0E0E7E3F0E08081482F8A815F
:10171000282F30E081E090E0022E02C0880F991F50
:101720000A94E2F7842B8C936FC08B81282F30E0D2
:101730003F832E838E819F81009731F02E813F81E0
:1017400021303105B1F060C0A4E3B0E0E4E3F0E0A3
:101750008081482F8A81282F30E081E090E0022E9E
:1017600002C0880F991F0A94E2F7809584238C9316
:101770004BC0A4E3B0E0E4E3F0E08081482F8A812D
:10178000282F30E081E090E0022E02C0880F991FE0
:101790000A94E2F7842B8C9337C08B81282F30E09A
:1017A0003D832C838C819D81009731F02C813D817C
:1017B00021303105B1F028C0A1E3B0E0E1E3F0E071
:1017C0008081482F8A81282F30E081E090E0022E2E
:1017D00002C0880F991F0A94E2F7809584238C93A6
:1017E00013C0A1E3B0E0E1E3F0E08081482F8A81FB
:1017F000282F30E081E090E0022E02C0880F991F70
:101800000A94E2F7842B8C932D960FB6F894DEBFE2
:101810000FBECDBFCF91DF910895DF93CF93CDB7AA
:10182000DEB72D970FB6F894DEBF0FBECDBF89830C
:101830006A834B838A81883008F006C18B818230AD
:1018400008F002C18981282F30E03D872C878C85E4
:101850009D858234910509F450C02C853D85233443
:10186000310534F48C859D858134910571F0ECC08F
:101870002C853D852334310509F477C08C859D8501
:101880008434910509F4A9C0DFC08B81282F30E092
:101890003B872A878A859B85009731F02A853B857F
:1018A00021303105B1F0D0C0ABE3B0E0EBE3F0E0C4
:1018B0008081482F8A81282F30E081E090E0022E3D
:1018C00002C0880F991F0A94E2F7809584238C93B5
:1018D000BBC0ABE3B0E0EBE3F0E08081482F8A814E
:1018E000282F30E081E090E0022E02C0880F991F7F
:1018F0000A94E2F7842B8C93A7C08B81282F30E0C9
:101900003987288788859985009731F0288539851A
:1019100021303105B1F098C0A8E3B0E0E8E3F0E091
:101920008081482F8A81282F30E081E090E0022ECC
:1019300002C0880F991F0A94E2F7809584238C9344
:1019400083C0A8E3B0E0E8E3F0E08081482F8A811B
:10195000282F30E081E090E0022E02C0880F991F0E
:101960000A94E2F7842B8C936FC08B81282F30E090
:101970003F832E838E819F81009731F02E813F819E
:1019800021303105B1F060C0A5E3B0E0E5E3F0E05F
:101990008081482F8A81282F30E081E090E0022E5C
:1019A00002C0880F991F0A94E2F7809584238C93D4
:1019B0004BC0A5E3B0E0E5E3F0E08081482F8A81E9
:1019C000282F30E081E090E0022E02C0880F991F9E
:1019D0000A94E2F7842B8C9337C08B81282F30E058
:1019E0003D832C838C819D81009731F02C813D813A
:1019F00021303105B1F028C0A2E3B0E0E2E3F0E02D
:101A00008081482F8A81282F30E081E090E0022EEB
:101A100002C0880F991F0A94E2F7809584238C9363
:101A200013C0A2E3B0E0E2E3F0E08081482F8A81B6
:101A3000282F30E081E090E0022E02C0880F991F2D
:101A40000A94E2F7842B8C932D960FB6F894DEBFA0
:101A50000FBECDBFCF91DF910895DF93CF9300D01C
:101A600000D0CDB7DEB789836A838981282F30E023
:101A70003C832B838B819C8182349105D9F02B810F
:101A80003C812334310534F48B819C818134910570
:101A900061F01EC02B813C812334310581F08B81A4
:101AA0009C818434910581F013C0EAE3F0E08A81DF
:101AB00080830EC0E7E3F0E08A81808309C0E4E31D
:101AC000F0E08A81808304C0E1E3F0E08A818083D2
:101AD0000F900F900F900F90CF91DF910895DF93AB
:101AE000CF9300D000D0CDB7DEB789836A838981D8
:101AF000282F30E03C832B838B819C81823491059D
:101B0000D9F02B813C812334310534F48B819C81C5
:101B10008134910561F01EC02B813C812334310555
:101B200081F08B819C818434910581F013C0EBE3BB
:101B3000F0E08A8180830EC0E8E3F0E08A81808350
:101B400009C0E5E3F0E08A81808304C0E2E3F0E0CD
:101B50008A8180830F900F900F900F90CF91DF912B
:101B60000895DF93CF9300D000D00F92CDB7DEB7AA
:101B70008A836B838B81883008F068C08A81282F24
:101B800030E03D832C834C815D814234510541F12D
:101B90008C819D818334910534F42C813D812134E5
:101BA000310561F055C04C815D814334510551F1DF
:101BB0008C819D8184349105B9F14AC0E9E3F0E05C
:101BC0008081282F30E08B81882F90E0A90102C00E
:101BD000559547958A95E2F7CA018170898338C087
:101BE000E6E3F0E08081282F30E08B81882F90E0C1
:101BF000A90102C0559547958A95E2F7CA018170FF
:101C0000898326C0E3E3F0E08081282F30E08B81D8
:101C1000882F90E0A90102C0559547958A95E2F773
:101C2000CA018170898314C0E0E3F0E08081282F2D
:101C300030E08B81882F90E0A90102C0559547952F
:101C40008A95E2F7CA018170898302C08FEF898388
:101C500089810F900F900F900F900F90CF91DF918F
:101C60000895DF93CF9300D00F92CDB7DEB789836D
:101C70008981282F30E03B832A838A819B818130B0
:101C80009105C1F02A813B812230310511F18A8111
:101C90009B81009761F5A7E2B0E0E7E2F0E0808188
:101CA0008F7B8C93A7E2B0E0E7E2F0E080818F7752
:101CB0008C931DC0A7E2B0E0E7E2F0E08081806491
:101CC0008C93A7E2B0E0E7E2F0E080818F778C931D
:101CD0000EC0A7E2B0E0E7E2F0E0808180648C9380
:101CE000A7E2B0E0E7E2F0E0808180688C93A7E2B1
:101CF000B0E0E7E2F0E0808180628C93A6E2B0E0A1
:101D0000E6E2F0E0808181608C93A6E2B0E0E6E25A
:101D1000F0E0808182608C93A6E2B0E0E6E2F0E041
:101D2000808184608C93A6E2B0E0E6E2F0E08081FE
:101D300080688C930F900F900F90CF91DF91089552
:101D4000DF93CF930F92CDB7DEB78983A7E2B0E0E0
:101D5000E7E2F0E08081807E8C93A7E2B0E0E7E2EA
:101D6000F0E090818981892B8C93A6E2B0E0E6E2D5
:101D7000F0E0808180648C93E6E2F0E080818295DF
:101D80008F70882F90E0817090700097A9F3A6E281
:101D9000B0E0E6E2F0E0808180618C93E5E2F0E083
:101DA00080810F90CF91DF910895DF93CF93CDB7CE
:101DB000DEB784E465E041E00E94ED0A0E94660718
:101DC00080E29EE40E94C907CF91DF910895DF93DE
:101DD000CF9300D00F92CDB7DEB78B838B8199273D
:101DE00087FD9095A92FB92FBC01CD010E94A103B9
:101DF000DC01CB01BC01CD012CE137EC41EB50E41F
:101E00000E941702DC01CB01BC01CD0120E030E8CB
:101E10004BEB54E40E94EA01DC01CB01BC01CD0193
:101E20000E944100DC01CB019A83898389819A81D8
:101E30000E94DB070F900F900F90CF91DF910895D4
:101E4000DF93CF93CDB7DEB7E8970FB6F894DEBF38
:101E50000FBECDBF81E46FEF0E942D0D83E460E0E3
:101E600041E00E94ED0A83E461E041E00E94ED0A56
:101E700083E462E041E00E94ED0A80E090E0A8EF98
:101E8000B1E48DAB9EABAFABB8AF6DA97EA98FA906
:101E900098AD20E030E04AEF54E40E941702DC01E4
:101EA000CB0189AB9AABABABBCAB69A97AA98BA9C7
:101EB0009CA920E030E040E85FE30E9471038823A2
:101EC0002CF481E090E098AB8FA73FC069A97AA974
:101ED0008BA99CA920E03FEF4FE757E40E94110334
:101EE00018164CF56DA97EA98FA998AD20E030E0B9
:101EF00040E251E40E941702DC01CB01BC01CD019C
:101F00000E944100DC01CB0198AB8FA70FC088EC89
:101F100090E09EA78DA78DA59EA50197F1F79EA79E
:101F20008DA78FA598A9019798AB8FA78FA598A982
:101F3000009769F714C069A97AA98BA99CA90E9486
:101F40004100DC01CB0198AB8FA78FA598A99CA776
:101F50008BA78BA59CA50197F1F79CA78BA788E37E
:101F60000E941A1180E090E0A0E8BFE38FA398A739
:101F7000A9A7BAA76FA178A589A59AA520E030E006
:101F80004AEF54E40E941702DC01CB018BA39CA30F
:101F9000ADA3BEA36BA17CA18DA19EA120E030E0EA
:101FA00040E85FE30E94710388232CF481E090E015
:101FB0009AA389A33FC06BA17CA18DA19EA120E023
:101FC0003FEF4FE757E40E94110318164CF56FA13D
:101FD00078A589A59AA520E030E040E251E40E946E
:101FE0001702DC01CB01BC01CD010E944100DC01E4
:101FF000CB019AA389A30FC088EC90E098A38F8FA0
:102000008F8D98A10197F1F798A38F8F89A19AA13D
:1020100001979AA389A389A19AA1009769F714C08F
:102020006BA17CA18DA19EA10E944100DC01CB018E
:102030009AA389A389A19AA19E8F8D8F8D8D9E8D44
:102040000197F1F79E8F8D8F8CE00E941A1180E02E
:1020500090E0A0E8BFE3898F9A8FAB8FBC8F698D2A
:102060007A8D8B8D9C8D20E030E04AEF54E40E9405
:102070001702DC01CB018D8B9E8BAF8BB88F6D89E6
:102080007E898F89988D20E030E040E85FE30E94F0
:10209000710388232CF481E090E09C8B8B8B3FC0F4
:1020A0006D897E898F89988D20E03FEF4FE757E457
:1020B0000E94110318164CF5698D7A8D8B8D9C8DBD
:1020C00020E030E040E251E40E941702DC01CB0145
:1020D000BC01CD010E944100DC01CB019C8B8B8BAC
:1020E0000FC088EC90E09A8B898B89899A89019737
:1020F000F1F79A8B898B8B899C8901979C8B8B8BB1
:102100008B899C89009769F714C06D897E898F89B6
:10211000988D0E944100DC01CB019C8B8B8B8B89BD
:102120009C89988B8F878F8598890197F1F7988B79
:102130008F8781E00E941A1180E090E0A0E8BFE361
:102140008B879C87AD87BE876B857C858D859E85BB
:1021500020E030E04AEF54E40E941702DC01CB019A
:102160008F839887A987BA876F81788589859A85B3
:1021700020E030E040E85FE30E94710388232CF404
:1021800081E090E09E838D833FC06F817885898553
:102190009A8520E03FEF4FE757E40E94110318169D
:1021A0004CF56B857C858D859E8520E030E040E296
:1021B00051E40E941702DC01CB01BC01CD010E9459
:1021C0004100DC01CB019E838D830FC088EC90E041
:1021D0009C838B838B819C810197F1F79C838B83FC
:1021E0008D819E8101979E838D838D819E81009735
:1021F00069F714C06F81788589859A850E944100AE
:10220000DC01CB019E838D838D819E819A8389839E
:1022100089819A810197F1F79A83898386E00E94E8
:102220001A11E8960FB6F894DEBF0FBECDBFCF915E
:10223000DF910895DF93CF93CDB7DEB76D970FB6DB
:10224000F894DEBF0FBECDBF8D8F83E460E040E029
:102250000E940D0C83E461E040E00E940D0C81E4DB
:102260006D8D0E946F0D83E462E041E00E940D0CD1
:1022700080E090E0A0E8BFE3898F9A8FAB8FBC8F9E
:10228000698D7A8D8B8D9C8D20E030E04AEF54E48F
:102290000E941702DC01CB018D8B9E8BAF8BB88F18
:1022A0006D897E898F89988D20E030E040E85FE37A
:1022B0000E94710388232CF481E090E09C8B8B8B2F
:1022C0003FC06D897E898F89988D20E03FEF4FE771
:1022D00057E40E94110318164CF5698D7A8D8B8D89
:1022E0009C8D20E030E040E251E40E941702DC01C6
:1022F000CB01BC01CD010E944100DC01CB019C8BD4
:102300008B8B0FC088EC90E09A8B898B89899A8996
:102310000197F1F79A8B898B8B899C8901979C8B0C
:102320008B8B8B899C89009769F714C06D897E8996
:102330008F89988D0E944100DC01CB019C8B8B8B97
:102340008B899C89988B8F878F8598890197F1F766
:10235000988B8F8783E462E040E00E940D0C80E060
:1023600090E0A0E8BFE38B879C87AD87BE876B8535
:102370007C858D859E8520E030E04AEF54E40E9404
:102380001702DC01CB018F839887A987BA876F81F9
:10239000788589859A8520E030E040E85FE30E94F7
:1023A000710388232CF481E090E09E838D833FC0ED
:1023B0006F81788589859A8520E03FEF4FE757E464
:1023C0000E94110318164CF56B857C858D859E85C2
:1023D00020E030E040E251E40E941702DC01CB0132
:1023E000BC01CD010E944100DC01CB019E838D83A5
:1023F0000FC088EC90E09C838B838B819C8101973C
:10240000F1F79C838B838D819E8101979E838D83C1
:102410008D819E81009769F714C06F8178858985C9
:102420009A850E944100DC01CB019E838D838D81C2
:102430009E819A83898389819A810197F1F79A8392
:1024400089836D960FB6F894DEBF0FBECDBFCF91D6
:10245000DF910895DF93CF93CDB7DEB76D970FB6B9
:10246000F894DEBF0FBECDBF8D8F83E460E041E006
:102470000E940D0C83E461E040E00E940D0C81E4B9
:102480006D8D0E946F0D83E462E041E00E940D0CAF
:1024900080E090E0A0E8BFE3898F9A8FAB8FBC8F7C
:1024A000698D7A8D8B8D9C8D20E030E04AEF54E46D
:1024B0000E941702DC01CB018D8B9E8BAF8BB88FF6
:1024C0006D897E898F89988D20E030E040E85FE358
:1024D0000E94710388232CF481E090E09C8B8B8B0D
:1024E0003FC06D897E898F89988D20E03FEF4FE74F
:1024F00057E40E94110318164CF5698D7A8D8B8D67
:102500009C8D20E030E040E251E40E941702DC01A3
:10251000CB01BC01CD010E944100DC01CB019C8BB1
:102520008B8B0FC088EC90E09A8B898B89899A8974
:102530000197F1F79A8B898B8B899C8901979C8BEA
:102540008B8B8B899C89009769F714C06D897E8974
:102550008F89988D0E944100DC01CB019C8B8B8B75
:102560008B899C89988B8F878F8598890197F1F744
:10257000988B8F8783E462E040E00E940D0C80E03E
:1025800090E0A0E8BFE38B879C87AD87BE876B8513
:102590007C858D859E8520E030E04AEF54E40E94E2
:1025A0001702DC01CB018F839887A987BA876F81D7
:1025B000788589859A8520E030E040E85FE30E94D5
:1025C000710388232CF481E090E09E838D833FC0CB
:1025D0006F81788589859A8520E03FEF4FE757E442
:1025E0000E94110318164CF56B857C858D859E85A0
:1025F00020E030E040E251E40E941702DC01CB0110
:10260000BC01CD010E944100DC01CB019E838D8382
:102610000FC088EC90E09C838B838B819C81019719
:10262000F1F79C838B838D819E8101979E838D839F
:102630008D819E81009769F714C06F8178858985A7
:102640009A850E944100DC01CB019E838D838D81A0
:102650009E819A83898389819A810197F1F79A8370
:1026600089836D960FB6F894DEBF0FBECDBFCF91B4
:10267000DF910895DF93CF9300D00F92CDB7DEB7EF
:102680009B838A8319820EC08981282F30E08A813A
:102690009B81FC01E20FF31F80810E942A12898135
:1026A0008F5F89838981282F30E08A819B81FC019B
:1026B000E20FF31F8081882339F70F900F900F905E
:1026C000CF91DF910895DF93CF9300D00F92CDB7D4
:1026D000DEB78A836B838A81823090F48B8180316C
:1026E00078F48A81882319F48B81898303C08B81D4
:1026F000805C898389818068898389810E941A111D
:102700000F900F900F90CF91DF910895EF92FF926D
:102710000F931F93DF93CF93CDB7DEB728970FB6F4
:10272000F894DEBF0FBECDBF6D837E838F83988705
:1027300081E090E0A0E0B0E089839A83AB83BC8322
:102740008D819E81AF81B8850097A105B10519F4EF
:1027500080E30E942A128D819E81AF81B885BB23C0
:102760000CF049C08DE20E942A128D819E81AF81BA
:10277000B885B095A095909581959F4FAF4FBF4F6D
:102780008D839E83AF83B88736C089819A81AB8160
:10279000BC812AE030E040E050E0BC01CD010E9465
:1027A00042157B018C018D819E81AF81B8852AE025
:1027B00030E040E050E0BC01CD010E948315DC0117
:1027C000CB018E0D9F1DA01FB11F89839A83AB8300
:1027D000BC838D819E81AF81B8852AE030E040E0E6
:1027E00050E0BC01CD010E948315DA01C9018D833F
:1027F0009E83AF83B8878D819E81AF81B885009716
:10280000A105B10511F623C089819A81AB81BC81F4
:102810002AE030E040E050E0BC01CD010E946115AB
:10282000DC01CB01805D0E942A1289819A81AB81F3
:10283000BC812AE030E040E050E0BC01CD010E94C4
:102840006115DA01C90189839A83AB83BC838981CD
:102850009A81AB81BC8181309105A105B105A1F6BA
:1028600028960FB6F894DEBF0FBECDBFCF91DF9193
:102870001F910F91FF90EF900895DF93CF93CDB705
:10288000DEB781E00E941A1180E060E00E946313CD
:10289000CF91DF910895DF93CF9300D000D00F92B6
:1028A000CDB7DEB78FEF8C831B823EC08B81982F14
:1028B0009C5F84E4692F40E00E940D0C1A8226C0C0
:1028C00084E46A810E94B10D898389818823D9F4C7
:1028D0008A81482F50E08B81282F30E0CA01880F71
:1028E000991F880F991F820F931FFC01EE57FE4F0F
:1028F00080818C8384E46A810E94B10D8823D1F3A6
:102900008C818D8317C08A818F5F8A838A8184300E
:10291000B8F28B81982F9C5F84E4692F41E00E947C
:102920000D0C8B818F5F8B838B81843008F4BECF3D
:102930008C818D838D810F900F900F900F900F9051
:10294000CF91DF910895DF93CF93CDB7DEB783E4C6
:1029500060E041E00E94ED0A83E461E041E00E9412
:10296000ED0A83E460E040E00E940D0C83E461E046
:1029700040E00E940D0CCF91DF910895DF93CF933B
:10298000CDB7DEB783E461E040E00E940D0C83E444
:1029900060E041E00E940D0CCF91DF910895DF933C
:1029A000CF93CDB7DEB783E460E040E00E940D0C2A
:1029B00083E461E041E00E940D0CCF91DF91089526
:1029C000DF93CF93CDB7DEB783E460E040E00E94B1
:1029D0000D0C83E461E040E00E940D0CCF91DF918B
:1029E0000895DF93CF93CDB7DEB78AE50E94E70E57
:1029F0000E943D1480E690E00E943A13CF91DF914F
:102A00000895DF93CF93CDB7DEB786EA0E94E70E35
:102A10000E943D148DE690E00E943A13CF91DF9121
:102A20000895DF93CF930F92CDB7DEB782E464E0D1
:102A300040E00E94ED0A82E465E040E00E94ED0A79
:102A400082E466E041E00E94ED0A82E467E040E053
:102A50000E94ED0A0E9417080E94200F0E94D50EC6
:102A60000E94011588E70E942C088983898181339F
:102A700019F40E94F114F6CF8981823399F70E94EC
:102A80000115F0CF629FD001739FF001829FE00D8E
:102A9000F11D649FE00DF11D929FF00D839FF00DDD
:102AA000749FF00D659FF00D9927729FB00DE11D89
:102AB000F91F639FB00DE11DF91FBD01CF01112466
:102AC0000895A1E21A2EAA1BBB1BFD010DC0AA1F6F
:102AD000BB1FEE1FFF1FA217B307E407F50720F087
:102AE000A21BB30BE40BF50B661F771F881F991F02
:102AF0001A9469F760957095809590959B01AC014B
:102B0000BD01CF01089597FB092E05260ED057FD74
:102B100004D0D7DF0AD0001C38F45095409530958A
:102B200021953F4F4F4F5F4F0895F6F79095809551
:102B3000709561957F4F8F4F9F4F08952F923F92D1
:102B40004F925F926F927F928F929F92AF92BF92BD
:102B5000CF92DF92EF92FF920F931F93CF93DF9369
:102B6000CDB7DEB7CA1BDB0B0FB6F894DEBF0FBEC6
:102B7000CDBF09942A88398848885F846E847D8413
:102B80008C849B84AA84B984C884DF80EE80FD8015
:102B90000C811B81AA81B981CE0FD11D0FB6F8948B
:0E2BA000DEBF0FBECDBFED010895F894FFCF4C
:102BAE00446F6F72204F70656E65642100446F6FC5
:102BBE007220436C6F7365642100000000000000FA
:102BCE0000000001020203030303040404040404CE
:102BDE000404050505050505050505050505050599
:102BEE000505060606060606060606060606060679
:102BFE000606060606060606060606060606060667
:102C0E000606070707070707070707070707070748
:102C1E000707070707070707070707070707070736
:102C2E000707070707070707070707070707070726
:102C3E000707070707070707070707070707070716
:102C4E0007070808080808080808080808080808F8
:102C5E0008080808080808080808080808080808E6
:102C6E0008080808080808080808080808080808D6
:102C7E0008080808080808080808080808080808C6
:102C8E0008080808080808080808080808080808B6
:102C9E0008080808080808080808080808080808A6
:102CAE000808080808080808080808080808080896
:102CBE000808080808080808080808080808080886
:102CCE0008083738392F3435362A3132332D233030
:022CDE003D2B8C
:00000001FF
